:10100000130101FE232E1100232C81001304010281
:10101000930710002326F4FE232404FE232004FE5D
:10102000232204FE6F0000038327C4FE2320F4FE66
:101030000327C4FE832784FEB307F7002326F4FEAC
:10104000832704FE2324F4FE832744FE938717009E
:101050002322F4FE032744FE93079000E3D6E7FC27
:1010600013000000130000008320C101032481014C
:101070001301010267800000130101FF2326110004
:101080002324810013040101EFF09FF79307000070
:10109000138507008320C10003248100130101018F
:0410A0006780000065
:040000030000107871
:00000001FF
